:100000000C9463000C948B000C948B000C948B006C
:100010000C948B000C948B000C948B000C94860237
:100020000C948B000C948B000C948B000C948B0024
:100030000C948B000C948B000C948B000C948B0014
:100040000C943C020C948B000C940A020C94E40176
:100050000C948B000C948B000C948B000C948B00F4
:100060000C948B000C948B000000000023002600F1
:10007000290000000008000201000003040700003E
:1000800000000000000000000000240027002A00FB
:1000900000000000250028002B00040404040404D0
:1000A0000404020202020202030303030303010227
:1000B00004081020408001020408102001020408F6
:1000C000102093038F0311241FBECFEFD8E0DEBFB3
:1000D000CDBF23E0AAE3B1E001C01D92AF38B20763
:1000E000E1F711E0A0E0B1E0ECEAFDE002C005902C
:1000F0000D92AA33B107D9F710E0C2E6D0E004C0F0
:100100002197FE010E946105C136D107C9F70E94FF
:10011000B1040C94C9060C940000CF92DF92EF92C8
:10012000FF920F931F93CF93DF936C017A018B01A2
:10013000C0E0D0E0CE15DF0589F0D8016D918D01CA
:10014000D601ED91FC910190F081E02DC601099559
:10015000892B11F47E0102C02196ECCFC701DF91FB
:10016000CF911F910F91FF90EF90DF90CF90089566
:10017000FC01918D828D981761F0828DDF01A80FAF
:10018000B11D5D968C91928D9F5F9F73928F90E0D1
:1001900008958FEF9FEF0895FC01918D828D981740
:1001A00031F0828DE80FF11D858D90E008958FEF7D
:1001B0009FEF0895FC01918D228D892F90E0805C46
:1001C0009F4F821B91098F739927089580EC91E0CE
:1001D0000E94DA0021E0892B09F420E0822F0895A3
:1001E000FC01848DDF01A80FB11DA35ABF4F2C91D4
:1001F000848D90E001968F739927848FA689B789A3
:100200002C93A089B1898C9180648C93938D848D7B
:10021000981306C00288F389E02D80818F7D80834A
:100220000895EF92FF920F931F93CF93DF93EC010A
:1002300081E0888F9B8D8C8D981305C0E889F989A2
:10024000808185FD24C0F62E0B8D10E00F5F1F4FBF
:100250000F731127E02E8C8DE8120CC00FB607FC2F
:10026000FACFE889F989808185FFF5CFCE010E9418
:10027000F000F1CF8B8DFE01E80FF11DE35AFF4F27
:10028000F0820B8FEA89FB898081806207C0EE894A
:10029000FF896083E889F98980818064808381E0B7
:1002A00090E0DF91CF911F910F91FF90EF90089513
:1002B000CF93DF93EC01888D8823C9F0EA89FB890D
:1002C000808185FD05C0A889B9898C9186FD0FC004
:1002D0000FB607FCF5CF808185FFF2CFA889B989D9
:1002E0008C9185FFEDCFCE010E94F000E7CFDF912A
:1002F000CF91089580E090E0892B29F00E94E600DC
:1003000081110C94000008953FB7F8948091BC01CE
:100310009091BD01A091BE01B091BF0126B5A89BEF
:1003200005C02F3F19F00196A11DB11D3FBFBA2F87
:10033000A92F982F8827820F911DA11DB11DBC01E7
:10034000CD0142E0660F771F881F991F4A95D1F7AC
:1003500008950E9494060F931F93CF93DF93EC01AF
:100360008AE191E0998388830A811B810115110537
:1003700051F0F801868197810E94FC05C8010E9416
:10038000FC051B821A828C819D81009721F00E94BE
:10039000FC051D821C828E819F81009731F0DF91C8
:1003A000CF911F910F910C94FC05DF91CF911F917C
:1003B0000F910895CF93DF93EC010E94AB01CE0122
:1003C000DF91CF910C94FC051F920F920FB60F9204
:1003D00011242F933F934F935F936F937F938F934A
:1003E0009F93AF93BF93EF93FF9380EC91E00E94B4
:1003F000F000FF91EF91BF91AF919F918F917F910D
:100400006F915F914F913F912F910F900FBE0F9081
:100410001F9018951F920F920FB60F9211242F93D1
:100420008F939F93EF93FF93E091D001F091D101CF
:100430008081E091D601F091D70182FD12C09081B8
:100440008091D9018F5F8F732091DA01821751F06B
:10045000E091D901F0E0E054FE4F958F8093D901EF
:1004600001C08081FF91EF919F918F912F910F900B
:100470000FBE0F901F9018951F920F920FB60F92FC
:1004800011242F933F938F939F93AF93BF938091AA
:10049000B8019091B901A091BA01B091BB0130911E
:1004A000B70123E0230F2D3720F40196A11DB11DC4
:1004B00005C026E8230F0296A11DB11D2093B701A8
:1004C0008093B8019093B901A093BA01B093BB0196
:1004D0008091BC019091BD01A091BE01B091BF017E
:1004E0000196A11DB11D8093BC019093BD01A09305
:1004F000BE01B093BF01BF91AF919F918F913F918A
:100500002F910F900FBE0F901F9018951F920F9272
:100510000FB60F9211240F931F932F933F934F9376
:100520005F936F937F938F939F93AF93BF93EF935B
:10053000FF93E4E7F0E08491E0EBF0E09491ECE9E4
:10054000F0E0E491EE23C9F1882339F1833091F092
:1005500038F48130A9F0823001F584B58F7D12C066
:10056000873091F08830A1F08430B9F48091800018
:100570008F7D03C0809180008F77809380000DC0B5
:1005800084B58F7784BD09C08091B0008F7703C098
:100590008091B0008F7D8093B000F0E0EE0FFF1FE0
:1005A000E859FF4FA591B491EC91E92331E020E0A7
:1005B00009F430E0832F922F02C080E090E0209178
:1005C0005001309151012F5F3F4F309351012093E3
:1005D00050012091B601243618F025E020934B01FC
:1005E00020914B01233081F018F4223039F084C07F
:1005F000243019F1253009F455C07EC0892B09F04B
:100600007BC01092B60129C0019709F075C0E09136
:10061000B60181E08E0F8093B601F0E08091500129
:1006200090915101E65BFE4F80871092510110922C
:10063000500184E080934B015FC0892BA1F4E091CD
:10064000B60181E08E0F8093B601F0E080915001F9
:1006500090915101E65BFE4F8087109251011092FC
:10066000500183E0E7CF8091500190915101853690
:10067000910508F441C085E080934B012FB7F894B1
:100680008091B8019091B901A091BA01B091BB01DC
:100690002FBF80934C0190934D01A0934E01B093D6
:1006A0004F012AC02FB7F8944091B8015091B90179
:1006B0006091BA017091BB012FBF00914C01109164
:1006C0004D0120914E0130914F01401B510B620BA7
:1006D000730B493C51056105710540F01092B6015C
:1006E000109251011092500182E0A4CF892B21F485
:1006F0001092510110925001FF91EF91BF91AF9173
:100700009F918F917F916F915F914F913F912F9129
:100710001F910F910F900FBE0F901F9018958EE5AF
:1007200092E00C94AB01CF93DF931092C30110922F
:10073000C20188EE93E0A0E0B0E08093C401909302
:10074000C501A093C601B093C7018AE091E09093E0
:10075000C1018093C00185EC90E09093CD0180931E
:10076000CC0184EC90E09093CF018093CE0180EC9B
:1007700090E09093D1018093D00181EC90E0909330
:10078000D3018093D20182EC90E09093D5018093C5
:10079000D40186EC90E09093D7018093D60110921B
:1007A000D9011092DA011092DB011092DC0181E094
:1007B00090E090936B0280936A0210926C03109207
:1007C0006D0310926E0310926F03109270031092DB
:1007D00071031092720310927303109274031092BB
:1007E000750310927603109277031092780310929B
:1007F000790310927B0310927A0310927C0310927B
:100800007D0310927E0310927F031092800310925A
:1008100081031092820310928303109284038AE171
:1008200091E090935F0280935E028DE090E00E94E1
:100830006705EC0185E188838DE0898387E08A8301
:100840004BEB50E0FA0184918C8727EA30E0F90104
:10085000849190E0880F991F80579F4FFC0165910C
:10086000749179876887FA014491F90124912223D0
:1008700099F030E0220F331FF901EA57FF4FA5919D
:10088000B491F901E057FF4F859194918FB7F89497
:100890009C91492B4C938FBF80E290E09D838C8389
:1008A00080E690E00E9467059F838E83892B21F468
:1008B0008EE191E00E94990620E030E08C819D81DC
:1008C000AC01440F551F840F951F2817390740F4BA
:1008D000EE81FF81E20FF31F10822F5F3F4FEECFBB
:1008E000D0936102C093600284E090E00E946705AB
:1008F000FC01108211821282C8E0C0935D029093C5
:1009000063028093620286E090E00E946705FC012A
:10091000C08384E18183C6E0C283F0936502E093E3
:10092000640288E090E00E946705FC01C08387E0D4
:10093000818389E08283F0936702E093660288E016
:1009400090E00E946705FC0185E0808384E081835C
:100950008AE08283F0936902E0936802DF91CF918D
:100960000895789484B5826084BD84B5816084BD27
:1009700085B5826085BD85B5816085BD80916E003D
:10098000816080936E00109281008091810082606E
:1009900080938100809181008160809381008091AB
:1009A00080008160809380008091B100846080939A
:1009B000B1008091B00081608093B00080917A0096
:1009C000846080937A0080917A00826080937A00BC
:1009D00080917A00816080937A0080917A008068AB
:1009E00080937A001092C100E0916002F091610260
:1009F00020E030E044E68481958128173907F0F43F
:100A0000B901772768177907B0F4822F880F820F12
:100A100090E0A681B781A80FB91F1C92A681B7816B
:100A2000A80FB91F11961C9266817781DB01A80F70
:100A3000B91F12964C932F5F3F4FDDCFE0916002BC
:100A4000F0916102A085B185248584819581AC01F6
:100A5000440F551F840F951F768167815FB7F89407
:100A60004C91322F30953423242BE72FF62F8E0F05
:100A70009F1FE817F90781F0419168E02C9300C0AF
:100A800047FF3C93440F00C000C000C008F43C93F3
:100A900000C06A9599F7EDCF5FBF0E9484016B019A
:100AA0007C010E948401DC01CB018C199D09AE09F7
:100AB000BF09883E9340A105B10598F30E947A01D1
:100AC000FDCFEE0FFF1F0590F491E02D0994CF9319
:100AD000DF938230910510F482E090E0E09187038B
:100AE000F091880320E030E0C0E0D0E0309711F1D1
:100AF0004081518148175907C0F04817590761F4E0
:100B000082819381209719F09B838A832BC09093D5
:100B100088038093870326C02115310519F04217F9
:100B2000530718F49A01BE01DF01EF010280F3813F
:100B3000E02DDCCF2115310509F1281B390B2430BC
:100B4000310590F412968D919C9113976115710562
:100B500021F0FB019383828304C0909388038093E8
:100B60008703FD01329644C0FD01E20FF31F81931C
:100B70009193225031092D933C933AC020918503E3
:100B800030918603232B41F420910201309103011F
:100B90003093860320938503209100013091010159
:100BA0002115310541F42DB73EB740910401509114
:100BB0000501241B350BE0918503F0918603E217B4
:100BC000F307A0F42E1B3F0B2817390778F0AC0170
:100BD0004E5F5F4F2417350748F04E0F5F1F50934D
:100BE0008603409385038193919302C0E0E0F0E097
:100BF000CF01DF91CF9108950F931F93CF93DF9390
:100C0000009709F48CC0FC01329713821282009184
:100C10008703109188030115110581F4208131812A
:100C2000820F931F2091850330918603281739077F
:100C300079F5F0938603E093850371C0D80140E015
:100C400050E0AE17BF0750F412962D913C911397C8
:100C5000AD012115310509F1D901F3CF9D01DA016B
:100C60003383228360817181860F971F82179307D8
:100C700069F4EC0128813981260F371F2E5F3F4F21
:100C8000318320838A819B8193838283452B29F43E
:100C9000F0938803E093870342C01396FC93EE938E
:100CA0001297ED01499159919E01240F351FE217CA
:100CB000F30771F480819181840F951F029611963C
:100CC0009C938E938281938113969C938E9312971B
:100CD000E0E0F0E0D80112968D919C911397009777
:100CE00019F0F8018C01F6CF8D919C9198012E5F3F
:100CF0003F4F820F931F2091850330918603281761
:100D0000390769F4309729F4109288031092870309
:100D100002C0138212821093860300938503DF9131
:100D2000CF911F910F91089581E090E0F8940C9479
:100D3000C9060F931F93CF93DF93E0918B03F0913C
:100D40008C03238121FF1BC08C01D0E0C0E0F8019F
:100D500081918F0160918B0370918C03DB01189658
:100D6000ED91FC911997882331F00995892B79F33E
:100D7000DFEFCFEFECCF8AE00995892B19F08FEFE9
:100D80009FEF02C08D2F9C2FDF91CF911F910F916C
:100D9000089510E0C2E6D0E004C0FE010E946105A3
:0C0DA0002196C336D107C9F7F894FFCFA5
:100DAC0000008F0380000000000011018D00DA00AC
:100DBC00B800CC00580100000000AB01DA01546807
:100DCC00657265206973206E6F7420656E6F756730
:0A0DDC0068207370616365210D004B
:00000001FF
