:100000000C9478000C94A0000C94A0000C94A00018
:100010000C94A0000C94A0000C94A0000C94D60C9E
:100020000C94A0000C94A0000C94A0000C943F042D
:100030000C94A0000C94A0000C94A0000C94A000C0
:100040000C9433060C94A0000C94B5090C94E709A9
:100050000C94A0000C94A0000C94A0000C94A000A0
:100060000C94A0000C94A00070038D0385038D03F5
:100070008D0369038D0366038D038D0388037B0362
:100080008D038D038D038D038B037F038D0382030B
:100090000000000800020100000304070000000047
:1000A0000000000001020408102040800102040842
:1000B00010200102040810200404040404040404B1
:1000C0000202020202020303030303030000000012
:1000D00023002600290000000000250028002B0036
:1000E00000000000240027002A0002004903170A2C
:1000F00011241FBECFEFD8E0DEBFCDBF11E0A0E0DE
:10010000B1E0E2EFFBE102C005900D92A032B10731
:10011000D9F722E0A0E2B1E001C01D92A532B207FA
:10012000E1F710E0C0EFD0E004C02297FE010E948A
:10013000D90DCC3ED107C9F70E945B0A0C94F70D8C
:100140000C94000060E084E00E948C0782E090E064
:100150000E94C80661E084E00E948C078AE090E07B
:100160000E94C80660E084E00E948C0720E432E42C
:100170004FE050E061E085E00C94EB070E94A200A4
:100180002AE330E040E050E00E94B80DCA01B90116
:1001900008950F931F93CF93DF93EC018B01BC0164
:1001A0008DE291E00E94CE05B801882777FD809509
:1001B000982F0E94A006D0932C01C0932B01DF91B1
:1001C000CF911F910F91089564EF71E00E94C900D3
:1001D0000E94BE0061157105A9F06931710594F4A2
:1001E0002CE231E040E050E065E071E08CE00E94FC
:1001F000920A6CE271E080E090E00E94A00680E04C
:1002000090E0089526E930E040E050E069E471E0D4
:100210008CE00E94920A66E970E080E090E00E9423
:10022000A00681E090E008956AE570E08FE391E038
:100230000E94CE056AE070E080E090E00E94A00697
:100240006AE570E08CE391E00E94CE056AE070E020
:1002500080E090E00C94A00680910401811106C01A
:1002600064EF71E080E590E00E94C9000E94BE004A
:1002700061157105B9F069317105A4F40E9414018A
:100280002CE231E040E050E065E071E08CE00E945B
:10029000920A6CE271E080E090E00E94A00680E0AB
:1002A00090E0089581E090E0089580912B01909175
:1002B0002C018035910531F06AE070E080E590E036
:1002C0000E94C90060E070E08FE391E00E94CE05DB
:1002D0006AE070E080E090E00E94A00664EB70E0CD
:1002E0008CE391E00E94CE056AE070E080E090E04F
:1002F0000C94A00680912B0190912C0180359105E2
:1003000031F06AE070E080E590E00E94C9008091E1
:10031000420190914301039769F524E630E040E003
:1003200050E065E071E08CE00E94920A6CE271E0BE
:1003300080E090E00E94A00624E630E040E050E03B
:1003400065E271E08CE00E94920A6CE271E080E06C
:1003500090E00E94A0062CE231E040E050E065E031
:1003600071E08CE00E94920A64EF71E080E090E01E
:100370000E94A00664EB70E08FE391E00E94CE053E
:100380006AE070E080E090E00E94A00660E070E02B
:100390008CE391E00E94CE056AE070E080E090E09E
:1003A0000C94A00680912B0190912C018E36910522
:1003B00031F06AE070E08EE690E00E94C9006AE5E4
:1003C00070E08FE391E00E94CE056AE070E080E08B
:1003D00090E00E94A00664EB70E08CE391E00E9444
:1003E000CE056AE070E080E090E00C94A006809179
:1003F0002B0190912C01C29731F06AE070E082E30A
:1004000090E00E94C90060E070E08FE391E00E94FC
:10041000CE056AE070E080E090E00E94A0066AE508
:1004200070E08CE391E00E94CE056AE070E080E02D
:1004300090E00C94A0060E94D20164E873E080E092
:1004400090E00E94A0060C9414010E94F70164E859
:1004500073E080E090E00E94A0060C94140182E01A
:100460000E94C20790933B0180933A0183E00E946F
:10047000C207909339018093380160913A017091DD
:100480003B0120910B0130910C01409136015091BC
:1004900037016217730729F48417950711F40C9438
:1004A000F7016417750729F48217930711F40C9468
:1004B000D2010C94550181E10E940D079093350102
:1004C0008093340180E10E940D0790933301809363
:1004D00032012091340130913501809130019091A9
:1004E0003101281739071CF46AE570E002C064EB9B
:1004F00070E08CE391E00E94CE056AE070E080E05D
:1005000090E00E94A0062091320130913301809149
:10051000300190913101281739071CF46AE570E029
:1005200002C060E070E08FE391E00E94CE056AE0D7
:1005300070E080E090E00C94A0060E942C01909363
:100540000A01809309010197D1F510922A011092B6
:10055000290180910401811130C081E08093040160
:1005600024E630E040E050E069E471E08CE00E9475
:10057000920A64E670E080E090E00E94A00624E623
:1005800030E040E050E068E871E08CE00E94920AC0
:1005900064E670E080E090E00E94A0062CE231E08A
:1005A00040E050E06EEE71E08CE00E94920A6CE256
:1005B00071E080E090E00E94A0060C94550181E07B
:1005C00090E090932A0180932901109204010895EC
:1005D00082E390E00E94E40090930601809305017D
:1005E00064EF71E080E090E00E94A0068091050138
:1005F00090910601019731F410922A01109229017D
:100600000C94250282E090E090932A0180932901C6
:1006100008958EE690E00E94E40090930801809394
:10062000070164EF71E080E090E00E94A0068091F5
:10063000070190910801019731F410922A0110925C
:1006400029010C941B0283E090E090932A0180938F
:10065000290108958091290190912A018130910505
:1006600061F01CF4892B39F008958230910539F03E
:10067000039739F008950C949D020C94E8020C94B1
:10068000090381E090E090932A01809329010C9462
:100690007A018FE391E00E94FB048CE391E00E94D9
:1006A000FB048DE291E00C94FB04FC01808199270E
:1006B00087FD9095A92FB92FFC01E254F109E4318F
:1006C000F10558F5EC5CFF4F0C94D70D81E090E0FC
:1006D00002C082E090E090934301809342011DC0EC
:1006E00083E090E0909343018093420110922A01AD
:1006F0001092290112C010924301109242010E94EF
:1007000014010BC00E94550108C00E947A0105C067
:100710000E94D20102C00E94F70183E791E00C948D
:10072000CC0826E040E05BE460E070E083E791E025
:100730000E94530983E791E00E94CC0868E070E0D2
:100740008FE391E00E94950569E070E08CE391E011
:100750000E9495056BE070E08DE291E00E949505A6
:1007600060E082E00E94530760E083E00E9453074C
:1007700061E084E00E94530760E085E00E94530737
:100780000E9414016AE070E080E590E00E94C900D8
:10079000109243011092420188EC90E09093310155
:1007A000809330010895CF93DF9383E791E00E9417
:1007B0007008181619060CF047C010922301109209
:1007C000220185E0E4E2F1E0DF011D928A95E9F77C
:1007D00065E070E080E090E00E94A00683E791E091
:1007E0000E9470088630910514F085E090E09093A7
:1007F00021018093200180912001909121019C0191
:10080000215031093093210120932001892BC1F01F
:10081000C0912201D0912301CE0101969093230132
:100820008093220183E791E00E948908CC5DDE4F2E
:10083000888363E070E080E090E00E94A006DBCF58
:1008400084E291E00E94550380914201909143011E
:100850008130910521F4DF91CF910C942F028230E9
:10086000910521F4DF91CF910C945B02039721F461
:10087000DF91CF910C942A03DF91CF9108951F92BD
:100880000F920FB60F9211242F933F934F935F93C4
:100890006F937F938F939F93AF93BF93EF93FF9348
:1008A0008091450187FF05C0109285001092840059
:1008B0001AC020914501332727FD309580914401CE
:1008C00090E0281739077CF480914501992787FD2E
:1008D0009095FC01EE0FFF1FE80FF91FEA5BFE4F3A
:1008E000808186FD15C0809145018F5F8093450111
:1008F00020914501332727FD30958091440190E0F8
:1009000028173907BCF4809145018C305CF112C086
:1009100080914501992787FD9095FC01EE0FFF1FFF
:10092000E80FF91FEA5BFE4F808160E08F730E9441
:100930008C07D9CF809184009091850004968034F3
:100940009C4918F480E49CE905C080918400909152
:100950008500049690938900809388008FEF8093A0
:10096000450138C020918400309185008091450177
:10097000992787FD9095FC01EE0FFF1FE80FF91FE7
:10098000EA5BFE4F81819281820F931F90938900D1
:100990008093880080914501992787FD9095FC01FF
:1009A000EE0FFF1FE80FF91FEA5BFE4F808186FF05
:1009B00011C080914501992787FD9095FC01EE0FAC
:1009C000FF1FE80FF91FEA5BFE4F808161E08F7324
:1009D0000E948C07FF91EF91BF91AF919F918F91F2
:1009E0007F916F915F914F913F912F910F900FBE2B
:1009F0000F901F901895209144012C30A0F431E005
:100A0000320F30934401FC012083822F90E0FC01DF
:100A1000EE0FFF1FE80FF91FEA5BFE4F88EB9BE02C
:100A20009283818308952FEFFC0120830895DF9244
:100A3000EF92FF920F931F93CF93DF93EC01D62E8B
:100A40007A01890188818C3008F066C061E08D2DC3
:100A50000E9453078881A82FB0E0FD01EE0FFF1F11
:100A6000EA0FFB1FEA5BFE4F2D2D2F739081907CC8
:100A7000922B908360E272E06E197F0977FF02C0CB
:100A80006D5F7F4F7595679575956795698340E6AE
:100A900059E0401B510B57FF02C04D5F5F4F55950A
:100AA0004795559547954A836CE00E948A0D9CE0D6
:100AB000899FB001112420E030E0A901460F571FA3
:100AC000FA01EE0FFF1FE40FF51FEA5BFE4F908166
:100AD00096FD16C02F5F3F4F2C30310571F7811105
:100AE0000FC01092800082E08093810010928500F8
:100AF00010928400B19A80916F00826080936F00A1
:100B0000888190E0FC01EE0FFF1FE80FF91FEA5B00
:100B1000FE4F8081806480838881DF91CF911F9117
:100B20000F91FF90EF90DF90089520E639E040E2CA
:100B300052E00C941705FC0180818C3070F5918196
:100B400028E830E0291B310997FD3395220F331F28
:100B5000220F331F621773077CF0928128E532E081
:100B6000291B310997FD3395220F331F220F331FA5
:100B7000621773070CF49B0122503109220F331FB7
:100B80004FB7F89490E0FC01EE0FFF1FE80FF91F3C
:100B9000EA5BFE4F328321834FBF08954F925F92ED
:100BA0006F927F92AF92BF92CF92DF92EF92FF92BD
:100BB0000F931F93CF93DF93EC01603282E07807AD
:100BC0000CF040C077FD06C0653B71052CF064EB6E
:100BD00070E002C060E070E0898128E830E0281B06
:100BE000310987FD3395220F331F220F331F59011F
:100BF000CC24B7FCC094DC2C882777FD8095982FF7
:100C00002A8148E552E0421B510927FD5395440FC4
:100C1000551F440F551F2A01662457FC6094762CFB
:100C20007F926F925F924F9214EBE12EF12C00E0D5
:100C300010E020E030E0A9010E94320D0F900F90EB
:100C40000F900F90CE01DF91CF911F910F91FF90E8
:100C5000EF90DF90CF90BF90AF907F906F905F90BC
:100C60004F900C949B051F920F920FB60F92112478
:100C70002F933F938F939F93AF93BF9380916B017B
:100C800090916C01A0916D01B0916E0130916A015B
:100C900023E0230F2D3720F40196A11DB11D05C0BF
:100CA00026E8230F0296A11DB11D20936A018093AF
:100CB0006B0190936C01A0936D01B0936E018091D4
:100CC0006F0190917001A0917101B0917201019634
:100CD000A11DB11D80936F0190937001A0937101CC
:100CE000B0937201BF91AF919F918F913F912F91DE
:100CF0000F900FBE0F901F9018953FB7F8948091FA
:100D00006F0190917001A0917101B091720126B5AF
:100D1000A89B05C02F3F19F00196A11DB11D3FBF33
:100D20006627782F892F9A2F620F711D811D911DC3
:100D300042E0660F771F881F991F4A95D1F70895E3
:100D4000CF92DF92EF92FF92CF93DF936B017C0102
:100D50000E947D06EB01C114D104E104F10489F085
:100D60000E94790D0E947D066C1B7D0B683E7340CE
:100D700090F381E0C81AD108E108F108C851DC4FAE
:100D8000EACFDF91CF91FF90EF90DF90CF90089561
:100D9000019739F0880F991F880F991F02970197C3
:100DA000F1F70895789484B5826084BD84B581603C
:100DB00084BD85B5826085BD85B5816085BDEEE663
:100DC000F0E0808181608083E1E8F0E01082808142
:100DD00082608083808181608083E0E8F0E08081B0
:100DE00081608083E1EBF0E0808184608083E0EBD0
:100DF000F0E0808181608083EAE7F0E080818460B8
:100E00008083808182608083808181608083808113
:100E1000806880831092C10008958E3008F08E5053
:100E2000877020910D0190E4299F90011124822B5D
:100E300080937C0080917A00806480937A00809116
:100E40007A0086FDFCCF809178002091790090E0B7
:100E5000922B0895833081F028F4813099F082300C
:100E6000A1F008958730A9F08830B9F08430D1F42A
:100E7000809180008F7D03C0809180008F77809368
:100E80008000089584B58F7702C084B58F7D84BDBE
:100E900008958091B0008F7703C08091B0008F7D5E
:100EA0008093B0000895CF93DF9390E0FC01EC5560
:100EB000FF4F2491FC01E854FF4F8491882349F1AE
:100EC00090E0880F991FFC01E052FF4FA591B4916B
:100ED0008A529F4FFC01C591D4919FB7611108C000
:100EE000F8948C91209582238C93888182230AC068
:100EF000623051F4F8948C91322F309583238C9387
:100F00008881822B888304C0F8948C91822B8C93E7
:100F10009FBFDF91CF9108950F931F93CF93DF93DE
:100F20001F92CDB7DEB7282F30E0F901E057FF4F11
:100F30008491F901EC55FF4F1491F901E854FF4FEA
:100F400004910023C9F0882321F069830E942A07B5
:100F50006981E02FF0E0EE0FFF1FEA52FF4FA591ED
:100F6000B4919FB7F8948C91611103C010958123BF
:100F700001C0812B8C939FBF0F90DF91CF911F9168
:100F80000F910895CF93DF93282F30E0F901E057B8
:100F9000FF4F8491F901EC55FF4FD491F901E854CA
:100FA000FF4FC491CC2391F081110E942A07EC2FAE
:100FB000F0E0EE0FFF1FE453FF4FA591B4912C9189
:100FC0002D2381E090E021F480E002C080E090E0F9
:100FD000DF91CF910895CF92DF92EF92FF920F931E
:100FE0001F93CF93DF9390E0FC01EC55FF4FD4911A
:100FF000FC01E854FF4F7491611102C0C0E001C0D0
:10100000CD2FDA01C901BF70672F70E0660F771F1F
:1010100064537F4F00E010E09801FB01E590F490ED
:10102000F70140814D234C131EC0680179014FEF39
:10103000C41AD40AE40AF40A081719072A073B0756
:1010400009F442C097018601E8CF68017901FFEFFA
:10105000CF1ADF0AEF0AFF0A081719072A073B070A
:1010600099F197018601FB01E590F490F701408129
:101070004D234C13EACF801B910BA20BB30B20E046
:1010800030E0A901FB01E590F490F701F080FD222A
:10109000FC120AC0281739074A075B07A9F02F5F1F
:1010A0003F4F4F4F5F4FEECFA8E1B0E00E94DD0D04
:1010B000605F7F4F8F4F9F4F24E096958795779580
:1010C00067952A95D1F703C060E070E0CB01DF910E
:1010D000CF911F910F91FF90EF90DF90CF900895E7
:1010E000FC01818D228D90E0805C9F4F821B9109D5
:1010F0008F7399270895FC01918D828D981731F097
:10110000828DE80FF11D858D90E008958FEF9FEFA0
:101110000895FC01918D828D981761F0828DDF0119
:10112000A80FB11D5D968C91928D9F5F9F73928FDA
:1011300090E008958FEF9FEF08958DE09AE0892B5E
:1011400049F080E090E0892B29F00E940D0A81117E
:101150000C9400000895FC01848DDF01A80FB11DDF
:10116000A35ABF4F2C91848D90E001968F739927DD
:10117000848FA689B7892C93A089B1898C918064CA
:101180008C93938D848D981306C00288F389E02D8B
:1011900080818F7D80830895CF93DF93EC01888DCC
:1011A0008823C9F0EA89FB89808185FD05C0A8896B
:1011B000B9898C9186FD0FC00FB607FCF5CF8081F1
:1011C00085FFF2CFA889B9898C9185FFEDCFCE013B
:1011D0000E94AB08E7CFDF91CF910895CF92DF92C5
:1011E000FF920F931F93CF93DF931F92CDB7DEB77C
:1011F0006C01DC015B969C915B975C968C915C9793
:10120000981307C05096ED91FC915197808185FD10
:1012100032C0F601038D10E00F5F1F4F0F731127CF
:10122000F02EF601848DF81211C00FB607FCF9CF2D
:10123000D6015096ED91FC915197808185FFF1CFB9
:10124000C60169830E94AB086981EBCF838DE80FEB
:10125000F11DE35AFF4F6083D6015B960C935B97B9
:101260005296ED91FC91539780818062808381E05A
:1012700058968C930DC0D6015696ED91FC915797D8
:1012800060835096ED91FC915197808180648083BA
:1012900081E090E00F90DF91CF911F910F91FF902F
:1012A000DF90CF900895BF92CF92DF92EF92FF929E
:1012B000CF93DF93EC016A017B01B22EE889F989B3
:1012C00082E08083411581EE580761057105A1F028
:1012D00060E079E08DE390E0A70196010E94960D11
:1012E0002150310941095109569547953795279560
:1012F000211580E1380798F0E889F989108260E8C3
:1013000074E88EE190E0A70196010E94960D2150AD
:101310003109410951095695479537952795EC852F
:10132000FD853083EE85FF852083188EEC89FD894D
:10133000B082EA89FB89808180618083EA89FB89A8
:10134000808188608083EA89FB89808180688083CE
:10135000EA89FB8980818F7D8083DF91CF91FF9027
:10136000EF90DF90CF90BF9008951F920F920FB62D
:101370000F9211242F938F939F93EF93FF93E091FC
:101380008301F09184018081E0918901F0918A01CB
:1013900082FD12C0908180918C018F5F8F732091AC
:1013A0008D01821751F0E0918C01F0E0ED58FE4F75
:1013B000958F80938C0101C08081FF91EF919F9167
:1013C0008F912F910F900FBE0F901F9018951F9225
:1013D0000F920FB60F9211242F933F934F935F9369
:1013E0006F937F938F939F93AF93BF93EF93FF93ED
:1013F00083E791E00E94AB08FF91EF91BF91AF911D
:101400009F918F917F916F915F914F913F912F911C
:101410000F900FBE0F901F90189583E791E00E94E8
:10142000700821E0892B09F420E0822F08951092A2
:1014300076011092750188EE93E0A0E0B0E0809311
:10144000770190937801A0937901B0937A0183E1B9
:1014500091E0909374018093730185EC90E09093F8
:10146000800180937F0184EC90E0909382018093CF
:10147000810180EC90E0909384018093830181EC62
:1014800090E0909386018093850182EC90E09093A8
:1014900088018093870186EC90E090938A01809385
:1014A000890110928C0110928D0110928E01109280
:1014B0008F01089508950E94D2060E945A0A0E9440
:1014C0009103CDE9D8E00E94D3032097E1F30E9475
:1014D0009D08F9CFCF92DF92EF92FF920F931F9367
:1014E000CF93DF936C017A01EB01E60EF71E00E06B
:1014F00010E0CE15DF0561F06991D601ED91FC9108
:101500000190F081E02DC6010995080F191FF1CF58
:10151000C801DF91CF911F910F91FF90EF90DF9065
:10152000CF9008953F924F925F926F927F928F92E9
:101530009F92AF92BF92CF92DF92EF92FF920F9362
:101540001F93CF93DF9300D000D0CDB7DEB78B01D0
:1015500029013A0190910E01981721F09F3F09F05F
:10156000DAC104C0EAEEF0E0349081C080930E014D
:10157000EAEEF0E0E491EF3F09F4CDC1E13031F162
:10158000E23009F44BC0E11171C014BC15BC94B534
:10159000926094BD95B5916095BD282F30E0F9011A
:1015A000E854FF4FE491F0E0EE0FFF1FEA52FF4FC7
:1015B000459154915093200240931F02F901EC553C
:1015C000FF4F249120931E02312C53C010928000B3
:1015D0001092810090918100986090938100909189
:1015E0008100916090938100282F30E0F901E85448
:1015F000FF4FE491F0E0EE0FFF1FEA52FF4F4591DD
:1016000054915093190240931802F901EC55FF4F81
:10161000249120931702332433942BC01092B000EE
:101620001092B1009091B00092609093B0009091B0
:10163000B10091609093B100282F30E0F901E85497
:10164000FF4FE491F0E0EE0FFF1FEA52FF4F45918C
:1016500054915093120240931102F901EC55FF4F3F
:1016600024912093100252E0352E03C03E2E37FC09
:1016700052C161E00E9453074801A12CB12C832D77
:101680008D7F09F0C7C060E072E18AE790E0A501B4
:1016900094010E94B80D29833A834B835C836901CE
:1016A0007A0181E0C81AD108E108F1089FEFC91654
:1016B000D104E104F10409F008F49AC060E472E492
:1016C0008FE090E0A50194010E94B80D69017A01B4
:1016D000E1E0CE1AD108E108F108F2E03F1219C0AA
:1016E0008FEFC816D104E104F10409F008F48AC0B0
:1016F00060E970ED83E090E0A50194010E94B80DCF
:1017000069017A0191E0C91AD108E108F10883E082
:1017100001C082E0EFEFCE16D104E104F10409F03C
:1017200008F467C068E478EE81E090E0A5019401D8
:101730000E94B80D69017A01F1E0CF1AD108E108E1
:10174000F1083320E1F082E038121BC09FEFC91688
:10175000D104E104F10409F008F4DBC064E274EFA1
:1017600080E090E0A50194010E94B80D69017A0122
:10177000E1E0CE1AD108E108F10885E003C083E07A
:1017800001C084E0FFEFCF16D104E104F10489F138
:1017900080F162E17AE780E090E0A50194010E9487
:1017A000B80D69017A0181E0C81AD108E108F10891
:1017B000311002C084E001C086E09FEFC916D10459
:1017C000E104F104B1F0A8F0C980DA80EB80FC807C
:1017D0009AE0F594E794D794C7949A95D1F7E1E00D
:1017E000CE1AD108E108F108332031F087E00BC0B0
:1017F00081E0332011F007C085E095B5987F982BE4
:1018000095BD38C082E09091B100987F982B90935D
:10181000B10030C060E072E18AE790E0A501940178
:101820000E94B80D69017A01F1E0CF1AD108E108F0
:10183000F108C114D10481E0E806F10488F068E4FD
:1018400078EE81E090E0A50194010E94B80D690155
:101850007A0191E0C91AD108E108F10893E001C0CA
:1018600091E0E1E03E1206C080918100887F892BE3
:1018700080938100411451046104710471F0D80116
:10188000AA0FBB1FA30192010E94DD0D28EE33E0D9
:1018900040E050E00E94960D03C02FEF3FEFA901FA
:1018A000F1E03F16A1F082E0381619F1311033C093
:1018B000C7BC20932102309322024093230250930D
:1018C000240280916E00826080936E0024C0D092CA
:1018D0008900C092880020931A0230931B02409323
:1018E0001C0250931D0280916F00826080936F00F4
:1018F00012C0C092B300209313023093140240939D
:1019000015025093160280917000826080937000DF
:1019100002C084E078CF0F900F900F900F90DF916E
:10192000CF911F910F91FF90EF90DF90CF90BF90DC
:10193000AF909F908F907F906F905F904F903F906F
:101940000895813039F018F0823051F008951092E6
:101950006E00089580916F008D7F80936F000895D1
:10196000809170008D7F8093700081E08093B00043
:101970008091B100887F84608093B1001092B300A1
:101980000895CF93C82F80910E018C1307C0EAEE03
:10199000F0E084919FEF90930E0101C08FEF0E94C1
:1019A000A10C60E08C2FCF910C948C071F920F92AA
:1019B0000FB60F9211242F933F934F935F936F9322
:1019C0007F938F939F93AF93BF93EF93FF938091F8
:1019D000130290911402A0911502B0911602892B66
:1019E0008A2B8B2B51F190911002E0911102F09112
:1019F00012028081892780838091130290911402C2
:101A0000A0911502B0911602181619061A061B06A7
:101A1000C4F48091130290911402A0911502B09128
:101A200016020197A109B109809313029093140241
:101A3000A0931502B093160204C080910E010E947B
:101A4000C10CFF91EF91BF91AF919F918F917F91C9
:101A50006F915F914F913F912F910F900FBE0F901B
:101A60001F9018954F925F926F927F92AF92BF92A4
:101A7000CF92DF92EF92FF920F931F93CF93DF935A
:101A8000CDB7DEB729013A01621B730B840B950BAE
:101A900029893A894B895C892A193B094C095D09D6
:101AA000298B3A8B4B8B5C8B9B01AC0169897A89C2
:101AB0008B899C890E947A0DE418F508060917099C
:101AC000A80197010E94B80D2A0D3B1D4C1D5D1DFC
:101AD000CA01B901DF91CF911F910F91FF90EF9053
:101AE000DF90CF90BF90AF907F906F905F904F90BE
:101AF00008950895DB018F939F930E94DD0DBF91A0
:101B0000AF91A29F800D911DA39F900DB29F900D4C
:101B100011240895991B79E004C0991F961708F0C5
:101B2000961B881F7A95C9F780950895A1E21A2E11
:101B3000AA1BBB1BFD010DC0AA1FBB1FEE1FFF1F71
:101B4000A217B307E407F50720F0A21BB30BE40BC1
:101B5000F50B661F771F881F991F1A9469F7609508
:101B60007095809590959B01AC01BD01CF010895C2
:101B7000052E97FB1EF400940E94CF0D57FD07D051
:101B80000E94960D07FC03D04EF40C94CF0D509597
:101B90004095309521953F4F4F4F5F4F0895909559
:101BA0008095709561957F4F8F4F9F4F0895EE0FF1
:101BB000FF1F0590F491E02D09940E94E80DA59F68
:101BC000900DB49F900DA49F800D911D1124089538
:101BD000A29FB001B39FC001A39F700D811D11246E
:101BE000911DB29F700D811D1124911D0895F894CF
:021BF000FFCF25
:101BF2000100000001010001000100010001FF00DD
:101C0200000000EE086A0A700889087B08CC080008
:00000001FF